{
  "_format": "hh-sol-artifact-1",
  "contractName": "ZKDocument",
  "sourceName": "contracts/ZkDocument.sol",
  "abi": [
    {
      "inputs": [
        {
          "internalType": "uint256[]",
          "name": "_consts",
          "type": "uint256[]"
        },
        {
          "internalType": "uint256",
          "name": "_numFields",
          "type": "uint256"
        },
        {
          "internalType": "contract IPlonkVerifier",
          "name": "_verifier",
          "type": "address"
        },
        {
          "internalType": "bytes32",
          "name": "_schemaHash",
          "type": "bytes32"
        }
      ],
      "stateMutability": "nonpayable",
      "type": "constructor"
    },
    {
      "anonymous": false,
      "inputs": [
        {
          "indexed": true,
          "internalType": "address",
          "name": "previousOwner",
          "type": "address"
        },
        {
          "indexed": true,
          "internalType": "address",
          "name": "newOwner",
          "type": "address"
        }
      ],
      "name": "OwnershipTransferred",
      "type": "event"
    },
    {
      "inputs": [
        {
          "internalType": "address",
          "name": "institution",
          "type": "address"
        }
      ],
      "name": "addValidInstitution",
      "outputs": [],
      "stateMutability": "nonpayable",
      "type": "function"
    },
    {
      "inputs": [
        {
          "internalType": "address[]",
          "name": "institutions",
          "type": "address[]"
        }
      ],
      "name": "addValidInstitutions",
      "outputs": [],
      "stateMutability": "nonpayable",
      "type": "function"
    },
    {
      "inputs": [
        {
          "internalType": "bytes32",
          "name": "fieldIndex",
          "type": "bytes32"
        }
      ],
      "name": "attest",
      "outputs": [],
      "stateMutability": "nonpayable",
      "type": "function"
    },
    {
      "inputs": [
        {
          "internalType": "bytes32[]",
          "name": "fieldIndices",
          "type": "bytes32[]"
        }
      ],
      "name": "attestMultiple",
      "outputs": [],
      "stateMutability": "nonpayable",
      "type": "function"
    },
    {
      "inputs": [
        {
          "internalType": "bytes32",
          "name": "",
          "type": "bytes32"
        }
      ],
      "name": "attestations",
      "outputs": [
        {
          "internalType": "bool",
          "name": "",
          "type": "bool"
        }
      ],
      "stateMutability": "view",
      "type": "function"
    },
    {
      "inputs": [
        {
          "internalType": "bytes32",
          "name": "fieldIndex",
          "type": "bytes32"
        }
      ],
      "name": "checkCommitmentAttestation",
      "outputs": [
        {
          "internalType": "bool",
          "name": "",
          "type": "bool"
        }
      ],
      "stateMutability": "view",
      "type": "function"
    },
    {
      "inputs": [
        {
          "internalType": "address",
          "name": "institution",
          "type": "address"
        }
      ],
      "name": "checkTrustedInstitution",
      "outputs": [
        {
          "internalType": "bool",
          "name": "",
          "type": "bool"
        }
      ],
      "stateMutability": "view",
      "type": "function"
    },
    {
      "inputs": [
        {
          "internalType": "uint256",
          "name": "",
          "type": "uint256"
        }
      ],
      "name": "consts",
      "outputs": [
        {
          "internalType": "uint256",
          "name": "",
          "type": "uint256"
        }
      ],
      "stateMutability": "view",
      "type": "function"
    },
    {
      "inputs": [
        {
          "internalType": "bytes32",
          "name": "",
          "type": "bytes32"
        }
      ],
      "name": "fieldCommitments",
      "outputs": [
        {
          "internalType": "bytes32",
          "name": "",
          "type": "bytes32"
        }
      ],
      "stateMutability": "view",
      "type": "function"
    },
    {
      "inputs": [
        {
          "internalType": "address",
          "name": "user",
          "type": "address"
        },
        {
          "internalType": "uint256",
          "name": "fieldNumber",
          "type": "uint256"
        }
      ],
      "name": "getFieldIndex",
      "outputs": [
        {
          "internalType": "bytes32",
          "name": "",
          "type": "bytes32"
        }
      ],
      "stateMutability": "pure",
      "type": "function"
    },
    {
      "inputs": [],
      "name": "getValidatedSubmitters",
      "outputs": [
        {
          "internalType": "address[]",
          "name": "",
          "type": "address[]"
        }
      ],
      "stateMutability": "view",
      "type": "function"
    },
    {
      "inputs": [],
      "name": "numFields",
      "outputs": [
        {
          "internalType": "uint256",
          "name": "",
          "type": "uint256"
        }
      ],
      "stateMutability": "view",
      "type": "function"
    },
    {
      "inputs": [],
      "name": "owner",
      "outputs": [
        {
          "internalType": "address",
          "name": "",
          "type": "address"
        }
      ],
      "stateMutability": "view",
      "type": "function"
    },
    {
      "inputs": [
        {
          "internalType": "bytes32[]",
          "name": "commitments",
          "type": "bytes32[]"
        },
        {
          "internalType": "address[]",
          "name": "institutions",
          "type": "address[]"
        }
      ],
      "name": "postFields",
      "outputs": [],
      "stateMutability": "nonpayable",
      "type": "function"
    },
    {
      "inputs": [
        {
          "internalType": "address",
          "name": "institution",
          "type": "address"
        }
      ],
      "name": "removeValidInstitution",
      "outputs": [],
      "stateMutability": "nonpayable",
      "type": "function"
    },
    {
      "inputs": [],
      "name": "renounceOwnership",
      "outputs": [],
      "stateMutability": "nonpayable",
      "type": "function"
    },
    {
      "inputs": [
        {
          "internalType": "bytes32",
          "name": "",
          "type": "bytes32"
        }
      ],
      "name": "requiredCommitmentAttestations",
      "outputs": [
        {
          "internalType": "address",
          "name": "",
          "type": "address"
        }
      ],
      "stateMutability": "view",
      "type": "function"
    },
    {
      "inputs": [],
      "name": "schemaHash",
      "outputs": [
        {
          "internalType": "bytes32",
          "name": "",
          "type": "bytes32"
        }
      ],
      "stateMutability": "view",
      "type": "function"
    },
    {
      "inputs": [
        {
          "internalType": "address",
          "name": "newOwner",
          "type": "address"
        }
      ],
      "name": "transferOwnership",
      "outputs": [],
      "stateMutability": "nonpayable",
      "type": "function"
    },
    {
      "inputs": [
        {
          "internalType": "address",
          "name": "",
          "type": "address"
        }
      ],
      "name": "trustedInstitutions",
      "outputs": [
        {
          "internalType": "bool",
          "name": "",
          "type": "bool"
        }
      ],
      "stateMutability": "view",
      "type": "function"
    },
    {
      "inputs": [
        {
          "internalType": "bytes",
          "name": "proof",
          "type": "bytes"
        }
      ],
      "name": "validateSubmitter",
      "outputs": [],
      "stateMutability": "nonpayable",
      "type": "function"
    },
    {
      "inputs": [
        {
          "internalType": "uint256",
          "name": "",
          "type": "uint256"
        }
      ],
      "name": "validatedSubmitters",
      "outputs": [
        {
          "internalType": "address",
          "name": "",
          "type": "address"
        }
      ],
      "stateMutability": "view",
      "type": "function"
    }
  ],
  "bytecode": "0x60806040523480156200001157600080fd5b50604051620023493803806200234983398181016040528101906200003791906200047e565b620000576200004b620000c960201b60201c565b620000d160201b60201c565b83600790805190602001906200006f92919062000195565b508260088190555081600160006101000a81548173ffffffffffffffffffffffffffffffffffffffff021916908373ffffffffffffffffffffffffffffffffffffffff16021790555080600981905550505050506200050f565b600033905090565b60008060009054906101000a900473ffffffffffffffffffffffffffffffffffffffff169050816000806101000a81548173ffffffffffffffffffffffffffffffffffffffff021916908373ffffffffffffffffffffffffffffffffffffffff1602179055508173ffffffffffffffffffffffffffffffffffffffff168173ffffffffffffffffffffffffffffffffffffffff167f8be0079c531659141344cd1fd0a4f28419497f9722a3daafe3b4186f6b6457e060405160405180910390a35050565b828054828255906000526020600020908101928215620001d4579160200282015b82811115620001d3578251825591602001919060010190620001b6565b5b509050620001e39190620001e7565b5090565b5b8082111562000202576000816000905550600101620001e8565b5090565b6000604051905090565b600080fd5b600080fd5b600080fd5b6000601f19601f8301169050919050565b7f4e487b7100000000000000000000000000000000000000000000000000000000600052604160045260246000fd5b6200026a826200021f565b810181811067ffffffffffffffff821117156200028c576200028b62000230565b5b80604052505050565b6000620002a162000206565b9050620002af82826200025f565b919050565b600067ffffffffffffffff821115620002d257620002d162000230565b5b602082029050602081019050919050565b600080fd5b6000819050919050565b620002fd81620002e8565b81146200030957600080fd5b50565b6000815190506200031d81620002f2565b92915050565b60006200033a6200033484620002b4565b62000295565b9050808382526020820190506020840283018581111562000360576200035f620002e3565b5b835b818110156200038d57806200037888826200030c565b84526020840193505060208101905062000362565b5050509392505050565b600082601f830112620003af57620003ae6200021a565b5b8151620003c184826020860162000323565b91505092915050565b600073ffffffffffffffffffffffffffffffffffffffff82169050919050565b6000620003f782620003ca565b9050919050565b60006200040b82620003ea565b9050919050565b6200041d81620003fe565b81146200042957600080fd5b50565b6000815190506200043d8162000412565b92915050565b6000819050919050565b620004588162000443565b81146200046457600080fd5b50565b60008151905062000478816200044d565b92915050565b600080600080608085870312156200049b576200049a62000210565b5b600085015167ffffffffffffffff811115620004bc57620004bb62000215565b5b620004ca8782880162000397565b9450506020620004dd878288016200030c565b9350506040620004f0878288016200042c565b9250506060620005038782880162000467565b91505092959194509250565b611e2a806200051f6000396000f3fe608060405234801561001057600080fd5b50600436106101425760003560e01c8063839a4f49116100b8578063a9f905821161007c578063a9f9058214610373578063afb64f58146103a3578063c5c96484146103d3578063e5d8c9d7146103ef578063f2cbc8de1461040d578063f2fde38b1461043d57610142565b8063839a4f49146102bd5780638da5cb5b146102d957806393a6fb7e146102f7578063940992a31461032757806396fc03791461035757610142565b806345cb60631161010a57806345cb6063146101e95780634860f08c1461021957806351738e421461024957806356bb42ed146102655780635f06f9d414610295578063715018a6146102b357610142565b806305a9c0bc146101475780630bece904146101635780631f85f2f01461017f57806323c3617f146101af57806334a4873a146101cb575b600080fd5b610161600480360381019061015c91906111fb565b610459565b005b61017d6004803603810190610178919061129e565b6104a1565b005b61019960048036038101906101949190611355565b61066b565b6040516101a6919061139d565b60405180910390f35b6101c960048036038101906101c49190611355565b610695565b005b6101d3610765565b6040516101e091906113c7565b60405180910390f35b61020360048036038101906101fe9190611355565b61076b565b60405161021091906113c7565b60405180910390f35b610233600480360381019061022e9190611418565b610783565b6040516102409190611454565b60405180910390f35b610263600480360381019061025e91906114cd565b6107a7565b005b61027f600480360381019061027a9190611355565b61087e565b60405161028c9190611509565b60405180910390f35b61029d6108b1565b6040516102aa91906115e2565b60405180910390f35b6102bb61093f565b005b6102d760048036038101906102d29190611604565b6109c7565b005b6102e1610ae8565b6040516102ee9190611509565b60405180910390f35b610311600480360381019061030c91906114cd565b610b11565b60405161031e919061139d565b60405180910390f35b610341600480360381019061033c9190611355565b610b67565b60405161034e919061139d565b60405180910390f35b610371600480360381019061036c91906114cd565b610b87565b005b61038d60048036038101906103889190611651565b610c5e565b60405161039a91906113c7565b60405180910390f35b6103bd60048036038101906103b89190611418565b610c91565b6040516103ca9190611509565b60405180910390f35b6103ed60048036038101906103e891906116e7565b610cd0565b005b6103f7610fa2565b6040516104049190611454565b60405180910390f35b610427600480360381019061042291906114cd565b610fa8565b604051610434919061139d565b60405180910390f35b610457600480360381019061045291906114cd565b610fc8565b005b60005b8282905081101561049c5761048983838381811061047d5761047c611734565b5b90506020020135610695565b808061049490611792565b91505061045c565b505050565b60085484849050146104b257600080fd5b8181905084849050146104c457600080fd5b60005b600854811015610664576105018383838181106104e7576104e6611734565b5b90506020020160208101906104fc91906114cd565b610b11565b610540576040517f08c379a000000000000000000000000000000000000000000000000000000000815260040161053790611838565b60405180910390fd5b600061054c3383610c5e565b90506000801b6003600083815260200190815260200160002054146105a6576040517f08c379a000000000000000000000000000000000000000000000000000000000815260040161059d906118a4565b60405180910390fd5b8383838181106105b9576105b8611734565b5b90506020020160208101906105ce91906114cd565b6004600083815260200190815260200160002060006101000a81548173ffffffffffffffffffffffffffffffffffffffff021916908373ffffffffffffffffffffffffffffffffffffffff16021790555085858381811061063257610631611734565b5b90506020020135600360008381526020019081526020016000208190555050808061065c90611792565b9150506104c7565b5050505050565b60006005600083815260200190815260200160002060009054906101000a900460ff169050919050565b6004600082815260200190815260200160002060009054906101000a900473ffffffffffffffffffffffffffffffffffffffff1673ffffffffffffffffffffffffffffffffffffffff163373ffffffffffffffffffffffffffffffffffffffff1614610736576040517f08c379a000000000000000000000000000000000000000000000000000000000815260040161072d90611936565b60405180910390fd5b60016005600083815260200190815260200160002060006101000a81548160ff02191690831515021790555050565b60095481565b60036020528060005260406000206000915090505481565b6007818154811061079357600080fd5b906000526020600020016000915090505481565b6107af6110c0565b73ffffffffffffffffffffffffffffffffffffffff166107cd610ae8565b73ffffffffffffffffffffffffffffffffffffffff1614610823576040517f08c379a000000000000000000000000000000000000000000000000000000000815260040161081a906119a2565b60405180910390fd5b6001600260008373ffffffffffffffffffffffffffffffffffffffff1673ffffffffffffffffffffffffffffffffffffffff16815260200190815260200160002060006101000a81548160ff02191690831515021790555050565b60046020528060005260406000206000915054906101000a900473ffffffffffffffffffffffffffffffffffffffff1681565b6060600680548060200260200160405190810160405280929190818152602001828054801561093557602002820191906000526020600020905b8160009054906101000a900473ffffffffffffffffffffffffffffffffffffffff1673ffffffffffffffffffffffffffffffffffffffff16815260200190600101908083116108eb575b5050505050905090565b6109476110c0565b73ffffffffffffffffffffffffffffffffffffffff16610965610ae8565b73ffffffffffffffffffffffffffffffffffffffff16146109bb576040517f08c379a00000000000000000000000000000000000000000000000000000000081526004016109b2906119a2565b60405180910390fd5b6109c560006110c8565b565b6109cf6110c0565b73ffffffffffffffffffffffffffffffffffffffff166109ed610ae8565b73ffffffffffffffffffffffffffffffffffffffff1614610a43576040517f08c379a0000000000000000000000000000000000000000000000000000000008152600401610a3a906119a2565b60405180910390fd5b60005b82829050811015610ae357600160026000858585818110610a6a57610a69611734565b5b9050602002016020810190610a7f91906114cd565b73ffffffffffffffffffffffffffffffffffffffff1673ffffffffffffffffffffffffffffffffffffffff16815260200190815260200160002060006101000a81548160ff0219169083151502179055508080610adb90611792565b915050610a46565b505050565b60008060009054906101000a900473ffffffffffffffffffffffffffffffffffffffff16905090565b6000600260008373ffffffffffffffffffffffffffffffffffffffff1673ffffffffffffffffffffffffffffffffffffffff16815260200190815260200160002060009054906101000a900460ff169050919050565b60056020528060005260406000206000915054906101000a900460ff1681565b610b8f6110c0565b73ffffffffffffffffffffffffffffffffffffffff16610bad610ae8565b73ffffffffffffffffffffffffffffffffffffffff1614610c03576040517f08c379a0000000000000000000000000000000000000000000000000000000008152600401610bfa906119a2565b60405180910390fd5b6000600260008373ffffffffffffffffffffffffffffffffffffffff1673ffffffffffffffffffffffffffffffffffffffff16815260200190815260200160002060006101000a81548160ff02191690831515021790555050565b60008282604051602001610c73929190611a2b565b60405160208183030381529060405280519060200120905092915050565b60068181548110610ca157600080fd5b906000526020600020016000915054906101000a900473ffffffffffffffffffffffffffffffffffffffff1681565b6000600780549050600854610ce59190611a57565b67ffffffffffffffff811115610cfe57610cfd611aad565b5b604051908082528060200260200182016040528015610d2c5781602001602082028036833780820191505090505b50905060005b600854811015610ddc576000610d483383610c5e565b9050610d538161066b565b610d92576040517f08c379a0000000000000000000000000000000000000000000000000000000008152600401610d8990611b28565b60405180910390fd5b600360008281526020019081526020016000205460001c838381518110610dbc57610dbb611734565b5b602002602001018181525050508080610dd490611792565b915050610d32565b5060005b600780549050811015610e4b5760078181548110610e0157610e00611734565b5b90600052602060002001548282600854610e1b9190611a57565b81518110610e2c57610e2b611734565b5b6020026020010181815250508080610e4390611792565b915050610de0565b50600160009054906101000a900473ffffffffffffffffffffffffffffffffffffffff1673ffffffffffffffffffffffffffffffffffffffff16631e8e1e138484846040518463ffffffff1660e01b8152600401610eab93929190611c64565b60206040518083038186803b158015610ec357600080fd5b505afa158015610ed7573d6000803e3d6000fd5b505050506040513d601f19601f82011682018060405250810190610efb9190611cc9565b610f3a576040517f08c379a0000000000000000000000000000000000000000000000000000000008152600401610f3190611d42565b60405180910390fd5b6006339080600181540180825580915050600190039060005260206000200160009091909190916101000a81548173ffffffffffffffffffffffffffffffffffffffff021916908373ffffffffffffffffffffffffffffffffffffffff160217905550505050565b60085481565b60026020528060005260406000206000915054906101000a900460ff1681565b610fd06110c0565b73ffffffffffffffffffffffffffffffffffffffff16610fee610ae8565b73ffffffffffffffffffffffffffffffffffffffff1614611044576040517f08c379a000000000000000000000000000000000000000000000000000000000815260040161103b906119a2565b60405180910390fd5b600073ffffffffffffffffffffffffffffffffffffffff168173ffffffffffffffffffffffffffffffffffffffff1614156110b4576040517f08c379a00000000000000000000000000000000000000000000000000000000081526004016110ab90611dd4565b60405180910390fd5b6110bd816110c8565b50565b600033905090565b60008060009054906101000a900473ffffffffffffffffffffffffffffffffffffffff169050816000806101000a81548173ffffffffffffffffffffffffffffffffffffffff021916908373ffffffffffffffffffffffffffffffffffffffff1602179055508173ffffffffffffffffffffffffffffffffffffffff168173ffffffffffffffffffffffffffffffffffffffff167f8be0079c531659141344cd1fd0a4f28419497f9722a3daafe3b4186f6b6457e060405160405180910390a35050565b600080fd5b600080fd5b600080fd5b600080fd5b600080fd5b60008083601f8401126111bb576111ba611196565b5b8235905067ffffffffffffffff8111156111d8576111d761119b565b5b6020830191508360208202830111156111f4576111f36111a0565b5b9250929050565b600080602083850312156112125761121161118c565b5b600083013567ffffffffffffffff8111156112305761122f611191565b5b61123c858286016111a5565b92509250509250929050565b60008083601f84011261125e5761125d611196565b5b8235905067ffffffffffffffff81111561127b5761127a61119b565b5b602083019150836020820283011115611297576112966111a0565b5b9250929050565b600080600080604085870312156112b8576112b761118c565b5b600085013567ffffffffffffffff8111156112d6576112d5611191565b5b6112e2878288016111a5565b9450945050602085013567ffffffffffffffff81111561130557611304611191565b5b61131187828801611248565b925092505092959194509250565b6000819050919050565b6113328161131f565b811461133d57600080fd5b50565b60008135905061134f81611329565b92915050565b60006020828403121561136b5761136a61118c565b5b600061137984828501611340565b91505092915050565b60008115159050919050565b61139781611382565b82525050565b60006020820190506113b2600083018461138e565b92915050565b6113c18161131f565b82525050565b60006020820190506113dc60008301846113b8565b92915050565b6000819050919050565b6113f5816113e2565b811461140057600080fd5b50565b600081359050611412816113ec565b92915050565b60006020828403121561142e5761142d61118c565b5b600061143c84828501611403565b91505092915050565b61144e816113e2565b82525050565b60006020820190506114696000830184611445565b92915050565b600073ffffffffffffffffffffffffffffffffffffffff82169050919050565b600061149a8261146f565b9050919050565b6114aa8161148f565b81146114b557600080fd5b50565b6000813590506114c7816114a1565b92915050565b6000602082840312156114e3576114e261118c565b5b60006114f1848285016114b8565b91505092915050565b6115038161148f565b82525050565b600060208201905061151e60008301846114fa565b92915050565b600081519050919050565b600082825260208201905092915050565b6000819050602082019050919050565b6115598161148f565b82525050565b600061156b8383611550565b60208301905092915050565b6000602082019050919050565b600061158f82611524565b611599818561152f565b93506115a483611540565b8060005b838110156115d55781516115bc888261155f565b97506115c783611577565b9250506001810190506115a8565b5085935050505092915050565b600060208201905081810360008301526115fc8184611584565b905092915050565b6000806020838503121561161b5761161a61118c565b5b600083013567ffffffffffffffff81111561163957611638611191565b5b61164585828601611248565b92509250509250929050565b600080604083850312156116685761166761118c565b5b6000611676858286016114b8565b925050602061168785828601611403565b9150509250929050565b60008083601f8401126116a7576116a6611196565b5b8235905067ffffffffffffffff8111156116c4576116c361119b565b5b6020830191508360018202830111156116e0576116df6111a0565b5b9250929050565b600080602083850312156116fe576116fd61118c565b5b600083013567ffffffffffffffff81111561171c5761171b611191565b5b61172885828601611691565b92509250509250929050565b7f4e487b7100000000000000000000000000000000000000000000000000000000600052603260045260246000fd5b7f4e487b7100000000000000000000000000000000000000000000000000000000600052601160045260246000fd5b600061179d826113e2565b91507fffffffffffffffffffffffffffffffffffffffffffffffffffffffffffffffff8214156117d0576117cf611763565b5b600182019050919050565b600082825260208201905092915050565b7f696e737469747574696f6e20697320756e747275737465640000000000000000600082015250565b60006118226018836117db565b915061182d826117ec565b602082019050919050565b6000602082019050818103600083015261185181611815565b9050919050565b7f63616e206f6e6c7920706f7374206669656c6473206f6e636500000000000000600082015250565b600061188e6019836117db565b915061189982611858565b602082019050919050565b600060208201905081810360008301526118bd81611881565b9050919050565b7f6f6e6c79207468652070726f7065722061747465737465722063616e2061747460008201527f6573742e00000000000000000000000000000000000000000000000000000000602082015250565b60006119206024836117db565b915061192b826118c4565b604082019050919050565b6000602082019050818103600083015261194f81611913565b9050919050565b7f4f776e61626c653a2063616c6c6572206973206e6f7420746865206f776e6572600082015250565b600061198c6020836117db565b915061199782611956565b602082019050919050565b600060208201905081810360008301526119bb8161197f565b9050919050565b60008160601b9050919050565b60006119da826119c2565b9050919050565b60006119ec826119cf565b9050919050565b611a046119ff8261148f565b6119e1565b82525050565b6000819050919050565b611a25611a20826113e2565b611a0a565b82525050565b6000611a3782856119f3565b601482019150611a478284611a14565b6020820191508190509392505050565b6000611a62826113e2565b9150611a6d836113e2565b9250827fffffffffffffffffffffffffffffffffffffffffffffffffffffffffffffffff03821115611aa257611aa1611763565b5b828201905092915050565b7f4e487b7100000000000000000000000000000000000000000000000000000000600052604160045260246000fd5b7f616c6c206669656c6473206d75737420626520617474657374656420746f0000600082015250565b6000611b12601e836117db565b9150611b1d82611adc565b602082019050919050565b60006020820190508181036000830152611b4181611b05565b9050919050565b600082825260208201905092915050565b82818337600083830152505050565b6000601f19601f8301169050919050565b6000611b858385611b48565b9350611b92838584611b59565b611b9b83611b68565b840190509392505050565b600081519050919050565b600082825260208201905092915050565b6000819050602082019050919050565b611bdb816113e2565b82525050565b6000611bed8383611bd2565b60208301905092915050565b6000602082019050919050565b6000611c1182611ba6565b611c1b8185611bb1565b9350611c2683611bc2565b8060005b83811015611c57578151611c3e8882611be1565b9750611c4983611bf9565b925050600181019050611c2a565b5085935050505092915050565b60006040820190508181036000830152611c7f818587611b79565b90508181036020830152611c938184611c06565b9050949350505050565b611ca681611382565b8114611cb157600080fd5b50565b600081519050611cc381611c9d565b92915050565b600060208284031215611cdf57611cde61118c565b5b6000611ced84828501611cb4565b91505092915050565b7f70726f6f6620766572696669636174696f6e206661696c656400000000000000600082015250565b6000611d2c6019836117db565b9150611d3782611cf6565b602082019050919050565b60006020820190508181036000830152611d5b81611d1f565b9050919050565b7f4f776e61626c653a206e6577206f776e657220697320746865207a65726f206160008201527f6464726573730000000000000000000000000000000000000000000000000000602082015250565b6000611dbe6026836117db565b9150611dc982611d62565b604082019050919050565b60006020820190508181036000830152611ded81611db1565b905091905056fea2646970667358221220b7edab2779bcc72580b8bbee14ce01fe1d5c82ce3a4f8c35b7c0e57ac85411e464736f6c63430008080033",
  "linkReferences": {},
  "deployedLinkReferences": {}
}